:020000040000FA
:100000000C9463000C94BE070C9497070C9404099D
:100010000C948B000C948B000C948B000C948B0034
:100020000C948B000C948B000C948B000C948B0024
:100030000C948B000C948B000C948B000C948B0014
:100040000C944D070C948B000C948B000C948B003B
:100050000C948B000C948B000C948B000C948B00F4
:100060000C94E5070C948B0000000000240027008E
:100070002A0000000000250028002B0000000008D6
:10008000000201000003040700000000000000005F
:10009000010204081020408001020408102001021F
:1000A000040810200000000023002600290004049A
:1000B0000404040404040202020202020303030310
:1000C00003038109F51511241FBECFEFD8E0DEBF71
:1000D000CDBF15E0A0E0B1E0E2EAF5E302C0059093
:1000E0000D92A230B107D9F726E0A2E0B5E001C039
:1000F0001D92AC3AB207E1F710E0C2E6D0E004C0CE
:100100002197FE010E947E19C136D107C9F70E94CE
:10011000680A0C94C41A0C9400009C0197FF02C05A
:10012000295F3F4F43E0359527954A95E1F7E091E8
:10013000A406F091A506E20FF31F68E070E00E94AC
:100140006A1921E030E001C0220F8A95EAF7808128
:10015000822B80830895613011F40C948D009C01F2
:1001600097FF02C0295F3F4F43E0359527954A9599
:10017000E1F7E091A406F091A506E20FF31F68E015
:1001800070E00E946A1921E030E0A90102C0440F2A
:10019000551F8A95E2F7CA01809590818923808353
:1001A000089581E090E09093D8058093D705089555
:1001B00008950895089590E0FC01E458FF4F2491BC
:1001C000FC01E057FF4F3491FC01E255FF4FE491F1
:1001D000EE23C9F0222339F0233001F1A8F42130B5
:1001E00019F1223029F1F0E0EE0FFF1FEE58FF4F1A
:1001F000A591B4918FB7F894EC91611126C0309518
:100200003E233C938FBF08952730A9F02830C9F0D2
:10021000243049F7809180008F7D03C08091800059
:100220008F7780938000DFCF84B58F7784BDDBCF5D
:1002300084B58F7DFBCF8091B0008F778093B00025
:10024000D2CF8091B0008F7DF9CF3E2BDACFCF9304
:10025000DF9390E0FC01E057FF4F249182559F4FC0
:10026000FC0184918823D1F090E0880F991FFC0154
:10027000E859FF4FA591B491FC01EE58FF4FC5918D
:10028000D491623071F49FB7F8943C91822F80959D
:1002900083238C93E8812E2B28839FBFDF91CF91FE
:1002A00008958FB7F894EC912E2B2C938FBFF6CF37
:1002B0008E50806480937C0080917A00806480936B
:1002C0007A0080917A0086FDFCCF80917800909131
:1002D000790008953FB7F894809171059091720567
:1002E000A0917305B091740526B5A89B05C02F3F5A
:1002F00019F00196A11DB11D3FBFBA2FA92F982F4C
:100300008827BC01CD01620F711D811D911D42E046
:10031000660F771F881F991F4A95D1F708952FB749
:10032000F89460916D0570916E0580916F059091C4
:1003300070052FBF0895089520914905260F332792
:10034000331F21323105ECF42091A705FC0190E028
:1003500080E0243069F082E00895A0914905219160
:10036000AC01475D5A4FA40FB52FB11D2C930196D8
:10037000861798F380914905680F6093490580E0DE
:10038000089581E008951092A70581E08093A60565
:100390001092810561E082E10E94DB0061E083E16F
:1003A0000E94DB00E9EBF0E080818E7F808380811A
:1003B0008D7F808388E48093B80085E48093BC00BF
:1003C0000895CF93DF9391E0909328058823B9F0A7
:1003D000C091B800D091BA008091BC008A7B809314
:1003E000BC0060E082E10E94DB0060E083E10E94EB
:1003F000DB000E94C301D093BA00C093B800DF9124
:10040000CF9108950895E0917D0580917C05E817CE
:1004100030F4F0E0E85FFA4F808190E008958FEFCC
:100420009FEF089590917D0580917C052FEF3FEF20
:10043000981748F4E92FF0E0E85FFA4F208130E0A8
:100440009F5F90937D05C901089580917C059091EF
:100450007D05891B990B0895CF92DF92EF92FF9251
:100460000F931F93CF93DF937C01CB018A012091DF
:10047000D005222389F0EB016B01C40ED51ECC15EB
:10048000DD0569F06991D701ED91FC910190F08152
:10049000E02DC7010995F3CF642F0E949C01C8018C
:1004A000DF91CF911F910F91FF90EF90DF90CF9050
:1004B0000895CF93DF931F92CDB7DEB76983209164
:1004C000D0052223F9F02091CD05203258F021E00B
:1004D00030E0FC013383228390E080E00F90DF91D5
:1004E000CF9108958091CE05E82FF0E0E355FA4FC3
:1004F000998190838F5F8093CE058093CD0581E0B5
:1005000090E0ECCF61E0CE0101960E949C01F7CF14
:1005100090E080E00895CF93DF93DC01EC91F0E070
:10052000EE0FFF1FEC55FF4FC591D49198811196A6
:100530008C91982381E009F480E0DF91CF910895B8
:100540002F923F924F925F926F927F928F929F92E3
:10055000AF92BF92CF92DF92EF92FF920F931F93D1
:10056000CF93DF9300D000D0CDB7DEB7C090520656
:10057000D0905306E0905406F090550620E030EA03
:100580004CE056E4C701B6010E94991787FF1CC0D2
:1005900087E090E00E948D0060E086E090E00E949D
:1005A000AB0060E085E090E00E94AB0020E030E02E
:1005B0004AEF55E4C701B6010E942C170E9410189B
:1005C000709307056093060520E030EA4CE056E49E
:1005D000C701B6010E94F81887FD26C020E030E46C
:1005E0004CE156E4C701B6010E94991787FF1CC071
:1005F00060E087E090E00E94AB0086E090E00E941F
:100600008D0060E085E090E00E94AB0020E030EAE1
:100610004CE056E4C701B6010E942C170E94101846
:10062000709307056093060520E030E44CE156E442
:10063000C701B6010E94F81887FD1CC060E087E082
:1006400090E00E94AB0060E086E090E00E94AB008A
:1006500085E090E00E948D0020E030E44CE156E41B
:10066000C701B6010E942C170E941018709307054D
:100670006093060520910605309107053C832B8386
:1006800024363105CCF460E084E090E00E94AB00B9
:1006900060E083E090E00E94AB0060E082E090E0E8
:1006A0000E94AB0060E081E090E00E94AB0060E05F
:1006B00090E080E00E94AB00AB80BC8034E6A31ADF
:1006C000B10884E6A816B104C0F484E090E00E946A
:1006D0008D0060E083E090E00E94AB0060E082E08B
:1006E00090E00E94AB0060E081E090E00E94AB00EF
:1006F00060E090E080E00E94AB00CB80DC8098EC72
:10070000C91AD10824E6C216D104B8F484E090E0F6
:100710000E948D0083E090E00E948D0060E082E006
:1007200090E00E94AB0060E081E090E00E94AB00AE
:1007300060E090E080E00E94AB00EB80FC803CE257
:10074000E31A31E0F30A84E6E816F104C0F460E04D
:1007500084E090E00E94AB0083E090E00E948D0076
:1007600060E082E090E00E94AB0060E081E090E019
:100770000E94AB0060E090E080E00E94AB000B8143
:100780001C810059114004361105B8F460E084E082
:1007900090E00E94AB0083E090E00E948D0082E038
:1007A00090E00E948D0060E081E090E00E94AB004C
:1007B00060E090E080E00E94AB008B809C8094EF32
:1007C000891A91E0990A24E682169104C0F460E047
:1007D00084E090E00E94AB0060E083E090E00E9443
:1007E000AB0082E090E00E948D0060E081E090E04C
:1007F0000E94AB0060E090E080E00E94AB006B8064
:100800007C8038E5631A32E0730A84E66816710466
:10081000B8F460E084E090E00E94AB0060E083E028
:1008200090E00E94AB0082E090E00E948D0081E0A9
:1008300090E00E948D0060E090E080E00E94AB00BC
:100840004B805C809CEB491A92E0590A24E64216E0
:100850005104C0F460E084E090E00E94AB0060E0EE
:1008600083E090E00E94AB0060E082E090E00E94B4
:10087000AB0081E090E00E948D0060E090E080E0BD
:100880000E94AB002B803C8030E2231A33E0330A15
:1008900084E628163104B8F460E084E090E00E9419
:1008A000AB0060E083E090E00E94AB0060E082E09B
:1008B00090E00E94AB0081E090E00E948D0090E00B
:1008C00080E00E948D002B813C81245833403A8384
:1008D00029832436310508F0FFC060E084E090E011
:1008E0000E94AB0060E083E090E00E94AB0060E01B
:1008F00082E090E00E94AB0060E081E090E00E9426
:10090000AB0090E080E00E948D0094E6A916B1044F
:1009100030F484E690E0909305058093040524E686
:10092000C216D10430F488EC90E0909305058093D2
:10093000040534E6E316F10430F48CE291E0909380
:100940000505809304050436110530F480E991E033
:10095000909305058093040584E68816910430F48D
:1009600084EF91E0909305058093040594E6691661
:10097000710430F488E592E09093050580930405B6
:1009800024E64216510430F48CEB92E09093050576
:100990008093040534E62316310430F480E293E0BA
:1009A000909305058093040589819A818436910589
:1009B00030F484E893E090930505809304058091DA
:1009C0000405909105052B813C81281B390B3A8346
:1009D00029832A30310524F4109203051092020570
:1009E00089819A810A970A9730F481E090E0909388
:1009F00003058093020589819A8144970A9730F410
:100A000082E090E0909303058093020589819A81AA
:100A10004E970A9730F483E090E09093030580931B
:100A2000020589819A8188970A9730F484E090E0E2
:100A3000909303058093020589819A81C2970A9752
:100A400030F485E090E0909303058093020589815E
:100A50009A81CC970A9730F486E090E09093030552
:100A60008093020589819A81865491090A9730F40E
:100A700087E090E0909303058093020589819A8135
:100A8000805591090A9730F488E090E0909303052F
:100A90008093020589819A818A5591090A9730F4D9
:100AA00089E090E09093030580930205E0910205B0
:100AB000F0910305EA30F10508F0DAC0EE59FA4F7B
:100AC0000C947E197705A605AB05B405BA05C805D3
:100AD000D305E605F60523068B819C8184369105B6
:100AE0000CF013CF10920505109204050ECF60E0B4
:100AF0008CE090E00E94AB0060E08BE090E00E9410
:100B0000AB0060E08AE090E00E94AB0060E089E02A
:100B100090E00E94AB0060E088E090E00F900F90C2
:100B20000F900F90DF91CF911F910F91FF90EF9059
:100B3000DF90CF90BF90AF909F908F907F906F90FD
:100B40005F904F903F902F900C94AB008CE090E022
:100B50000E948D00D1CF8CE090E00E948D008BE050
:100B600090E00E948D00CDCF60E08CE090E00E948C
:100B7000AB00F5CF60E08CE090E00E94AB008BE032
:100B800090E00E948D008AE090E00E948D00BECF30
:100B900060E08CE090E00E94AB0060E08BE090E0D1
:100BA0000E94AB00F0CF60E08CE090E00E94AB00D0
:100BB00060E08BE090E00E94AB008AE090E00E9451
:100BC0008D0089E090E00E948D00A5CF60E08CE070
:100BD00090E00E94AB0060E08BE090E00E94AB00F0
:100BE00060E08AE090E00E94AB00EBCF60E08CE038
:100BF00090E00E94AB0060E08BE090E00E94AB00D0
:100C000060E08AE090E00E94AB0089E090E00E9402
:100C10008D0088E090E00F900F900F900F90DF9183
:100C2000CF911F910F91FF90EF90DF90CF90BF90E9
:100C3000AF909F908F907F906F905F904F903F907C
:100C40002F900C948D0060E08CE090E00E94AB004F
:100C500060E08BE090E00E94AB0060E08AE090E012
:100C60000E94AB0060E089E090E00E94AB00D1CF31
:100C70000F900F900F900F90DF91CF911F910F91D8
:100C8000FF90EF90DF90CF90BF90AF909F908F90AC
:100C90007F906F905F904F903F902F900895DC0170
:100CA000ED91FD918081ED91FD919081ED91FD910E
:100CB0006C9163708E2309F064609F2309F0686073
:100CC000ECE6F6E0E60FF11D659565956D936D9187
:100CD0007D918D919D91099423C01AC012C016C0B8
:100CE00010C01EC009C014C013C006C019C009C07E
:100CF0000DC007C00DC014C06250704080409040CD
:100D00000BC0615070408040904006C06E5F01C0D3
:100D10006F5F7F4F8F4F9F4F9E938E937E936E9307
:100D2000089580916E0690916F060C944F06809105
:100D30007006909171060C944F06FC01A281B3815C
:100D40008C919181909598239C93A481B5819C91DD
:100D50008181809589238C930895EF92FF920F9360
:100D60001F93CF93DF93C0919C06D0919D0621974E
:100D7000D7FD1FC0E091A406F091A506EC0FFD1F62
:100D80000081F0909E06E090A00618E0602F661F9C
:100D90006627661F8E2D0E94DB00000F61E08F2DFD
:100DA0000E94DB0060E08F2D0E94DB00115071F784
:100DB000DECF61E08091A2060E94DB0060E08091BE
:100DC000A206DF91CF911F910F91FF90EF900C94AD
:100DD000DB008F929F92AF92BF92CF92DF92EF9201
:100DE000FF926B017C01C216D306E406F50684F47B
:100DF00049015A018C189D08AE08BF080E945B1675
:100E0000A50194010E94C916C60ED71EE81EF91E40
:100E1000C701B601FF90EF90DF90CF90BF90AF90E9
:100E20009F908F90089585ED8093BC008091A905D7
:100E30009091AA05A091AB05B091AC050796A11DB4
:100E4000B11D23E0B695A795979587952A95D1F77B
:100E50002091BC0024FD03C01092A7050895409185
:100E6000A9055091AA056091AB057091AC05452B81
:100E7000462B472B69F30097A105B10541F02AE203
:100E80002A95F1F700C00197A109B109E1CF80913E
:100E9000A8050C94E1010C94BB161F920F920FB69B
:100EA0000F9211242F933F938F939F93AF93BF93F0
:100EB00080916D0590916E05A0916F05B0917005C0
:100EC00030916C0523E0230F2D3758F50196A11DB5
:100ED000B11D20936C0580936D0590936E05A093D2
:100EE0006F05B09370058091710590917205A09186
:100EF0007305B09174050196A11DB11D8093710514
:100F000090937205A0937305B0937405BF91AF9150
:100F10009F918F913F912F910F900FBE0F901F9037
:100F2000189526E8230F0296A11DB11DD2CF1F925E
:100F30000F920FB60F9211242F933F934F935F930D
:100F40006F937F938F939F93AF93BF93EF93FF9391
:100F5000E0911901F0911A010995FF91EF91BF916C
:100F6000AF919F918F917F916F915F914F913F9141
:100F70002F910F900FBE0F901F9018951F920F92F8
:100F80000FB60F9211242F933F934F935F936F935C
:100F90007F938F939F93AF93BF93EF93FF93E091D2
:100FA0001701F09118010995FF91EF91BF91AF9151
:100FB0009F918F917F916F915F914F913F912F9171
:100FC0000F900FBE0F901F9018951F920F920FB6A3
:100FD0000F9211242F933F934F935F936F937F93BF
:100FE0008F939F93AF93BF93EF93FF938091B9003B
:100FF000887F803609F44AC0F0F5883209F4A7C02A
:1010000018F5803109F49BC0B8F4882309F4F9C0BD
:10101000883009F494C0FF91EF91BF91AF919F91F7
:101020008F917F916F915F914F913F912F910F9091
:101030000FBE0F901F901895883109F488C0803238
:1010400051F78093A50514C0803409F49DC040F485
:101050008033B9F38833F9F68093A50585ECB0C0E9
:10106000803509F485C0883509F496C0883499F62E
:101070000E941307D0CF883909F48CC038F588371F
:1010800029F050F4883611F0803729F683E08093F8
:10109000A70510926B0557C0883809F47BC08039CA
:1010A00019F0803809F0B7CF80916B05803208F0D5
:1010B00071C0E0916B0581E08E0F80936B0580918C
:1010C000BB00F0E0E55BFA4F80833DC0803B39F028
:1010D000E0F4803A09F479C0883A09F09CCF84E0C2
:1010E0008093A70510924A0510924905E0917A0570
:1010F000F0917B0509958091490581110FC081E030
:10110000809349051092290509C0803C09F4A6CFB7
:10111000883C09F4A3CF883B09F07DCFE0914A05D4
:1011200081E08E0F80934A05F0E0E75DFA4F808101
:101130008093BB0090914A058091490529C0809118
:1011400082058093BB0085EC8093BC0064CF9091B6
:10115000A4058091A305981758F5E091A40581E0B6
:101160008E0F8093A405F0E0ED57FA4F8081E9CF10
:10117000E091A40581E08E0F8093A4058091BB00CF
:10118000F0E0ED57FA4F80839091A4058091A3057C
:101190009817C8F285E8D8CFE091A40581E08E0FBA
:1011A0008093A4058091BB00F0E0ED57FA4F808357
:1011B0008091A60581115CCF81E08093810584EA4E
:1011C0008093BC001092A70526CF85EC8093BC00CD
:1011D0001092A70580916B05803230F4E0916B0589
:1011E000F0E0E55BFA4F108260916B0570E0E091F2
:1011F0007805F09179058BE495E0099510926B05DF
:101200000ACF1092A50534CF1F920F920FB60F92FE
:1012100011242F933F934F935F936F937F938F93FB
:101220009F93AF93BF93CF93EF93FF9383B1C091FD
:10123000750590917E05C923982F9095C9238093B9
:101240007505C0FF05C0E0910A01F0910B010995F9
:10125000C1FF05C0E0910001F09101010995C2FFB5
:1012600005C0E0910201F09103010995C3FF05C09B
:10127000E0910401F09105010995C4FF05C0E091DA
:101280000601F09107010995C5FF05C0E09108012D
:10129000F09109010995FF91EF91CF91BF91AF9125
:1012A0009F918F917F916F915F914F913F912F917E
:1012B0000F900FBE0F901F901895DC0170E0FB019E
:1012C000E057FF4FE4911196EC93119762557F4FD1
:1012D000FB0124912C9330E0220F331FF901E859D0
:1012E000FF4F8591949113969C938E931297F901D9
:1012F000EE58FF4F8591949115969C938E93149779
:101300000895CF93DF93109265061092640688EEDD
:1013100093E0A0E0B0E08093660690936706A09308
:101320006806B093690683EF94E090936306809318
:10133000620680E690E09093A7068093A60682E07E
:1013400090E090939D0680939C068CE090E09093B3
:101350009F0680939E068BE090E09093A106809379
:10136000A0068AE090E09093A3068093A20661E035
:101370008CE00E94270161E08BE00E94270161E080
:101380008AE00E94270160E08CE00E94DB0060E0C0
:101390008BE00E94DB0060E08AE00E94DB0082E0DC
:1013A00090E00E949F199093A5068093A406FC01EB
:1013B000118210820E94AD0662E082E00E94270145
:1013C00062E083E00E942701E0EBF0E0E491F0E0CE
:1013D000EE0FFF1FEC55FF4FA591B491B09391060E
:1013E000A0939006E2E9F0E0449140939406E1EB8B
:1013F000F0E0E491F0E0EE0FFF1FEC55FF4FC591D8
:10140000D491D0939306C0939206E3E9F0E0E4917F
:10141000E0939506109297061092980610929906FE
:1014200010929A062BE33FE1C9010197F1F79C91D5
:10143000842F892391E009F490E08881E82309F062
:10144000926020E936E09093960630936F062093E1
:101450006E0681E996E090931801809317018091C0
:1014600069008C7F816080936900E89A81E08093B5
:101470009B06309371062093700687E996E090935F
:101480001A018093190180916900837F84608093A1
:101490006900E99A82E080939B0661E08AE896E021
:1014A0000E945D0960E084E896E00E945D0964E0C6
:1014B0008EE796E00E945D0969E088E796E00E9469
:1014C0005D0968E082E796E0DF91CF910C945D09B9
:1014D000789484B5826084BD84B5816084BD85B50F
:1014E000826085BD85B5816085BD80916E0081601B
:1014F00080936E00109281008091810082608093C1
:1015000081008091810081608093810080918000C2
:101510008160809380008091B10084608093B100ED
:101520008091B00081608093B00080917A008460E7
:1015300080937A0080917A00826080937A00809113
:101540007A00816080937A0080917A00806880932D
:101550007A001092C10081ED90E090930B0180938E
:101560000A0180917E05816080937E0583B180931E
:10157000750580916B00816080936B00809168009D
:1015800081608093680010927D0510927C05109216
:10159000CE051092CD050E94C30188ED90E0909396
:1015A0007B0580937A0589ED90E09093790580938F
:1015B000780562E084E00E94270162E081E00E94F9
:1015C000270162E080E00E94270181E10E9458012A
:1015D000BC01990F880B990B611571058105910567
:1015E00011F00E94AA1686E891E00E94B31690E0DE
:1015F0009C0121573E4F3093130120931201019714
:10160000069758F080E991E09093130180931201BE
:1016100061E086E891E00E944B07C0911201D091F1
:101620001301CE010E94B31691E0811101C090E038
:10163000909316012196D0931301C0931201C539DE
:10164000D14034F080E991E090931301809312012E
:10165000609112016F5886E891E00E944B076091FB
:10166000160180911201909113010E944B0760E0D6
:101670008DE090E00E94AB0060E08EE090E00E9480
:10168000AB0060E08FE090E00E94AB00E09140068C
:10169000F0914106EE0FFF1FE751FB4F80819181D2
:1016A0000E948D0003EE15E0D0E0C0E0CE010E9464
:1016B000B316882349F0CE010E94B31690E08459F6
:1016C0009C4FF8019183808321960E5F1F4FC93292
:1016D000D10561F784E690E00E94B31690E0909304
:1016E000360680933506880F991FFC01EF51FA4F9B
:1016F000808191812AE0289FB001299F700D1124DB
:101700007093150160931401072E000C880B990B40
:101710000E944818609352067093530680935406B3
:101720009093550634E0432E512C612C712CC1E06E
:10173000D0E082E4282E82E2382E11E080E10E947F
:10174000580128EE3CE1DC010E94841920E034E0DD
:1017500040E050E00E94C91669017A01F4E7CF1A0F
:10176000FEE0DF0AE108F1084601D0926106C0926E
:101770006006A0905E06B0905F06CA14DB0409F410
:1017800051C0C6018A199B094096819740F0D092BA
:101790005D06C0925C06B0925B06A0925A068091EC
:1017A0005A0690915B069601281B390BC9010896D1
:1017B000419740F0D0925D06C0925C06B0925B0605
:1017C000A0925A060E948F0120915606309157062A
:1017D0004091580650915906621B730B840B950B70
:1017E000693C71058105910578F080915A069091C8
:1017F0005B068816990641F4D0925D06C0925C069D
:10180000B0925B06A0925A060E948F016093560622
:10181000709357068093580690935906D0925F06AE
:10182000C0925E06809114019091150120911601DD
:10183000222309F4BCC0092E000CAA0BBB0B60913B
:101840005C0670915D066B01072E000CEE08FF0828
:1018500002E4802E02E2902EA12CB12C8C189D085F
:10186000AE08BF0888159905AA05BB050CF08DC008
:101870006101C61AD70AD0921501C09214016C0DED
:101880007D1D072E000C880B990B0E944818609351
:101890005206709353068093540690935506C09059
:1018A0005206D0905306E0905406F090550620E082
:1018B00038E049E056E4C701B6010E94991787FD58
:1018C0008BC020E030E54AE256E4C701B6010E9431
:1018D000F81818163CF4C12CA0E5DA2EAAE2EA2E7C
:1018E000A6E4FA2EC0925206D0925306E092540615
:1018F000F092550620E030E048EC52E4C701B60112
:101900000E949E1760934E0670934F068093500678
:10191000909351068AE896E00E948B02082F81E09E
:1019200090E0002311F090E080E090934D068093CA
:101930004C0684E896E00E948B0221E030E0882388
:1019400011F030E020E030934B0620934A068EE7FA
:1019500096E00E948B0291E0811190E090934906FD
:10196000811142C0011140C010934806D093470630
:10197000C09346060E948F0160934206709343060F
:10198000809344069093450661C024E93AE240E022
:1019900050E02C193D094E095F0969017A018C1547
:1019A0009D05AE05BF050CF066CF6C0164CF85398F
:1019B0003AE2930714F084E99AE2823442E294070F
:1019C00014F482E492E29093150180931401BC0117
:1019D000990F880B990B59CFC12CF8E0DF2EF9E055
:1019E000EF2EF6E4FF2E7ECF10924806882311F2E8
:1019F000E0904C06F0904D06E114F10451F40E9481
:101A00008F0160934206709343068093440690933F
:101A100045068091460690914706E816F906B1F012
:101A200051E0E516F10409F05EC080914006909106
:101A300041060196833091050CF050C09093410609
:101A400080934006D0934706C09346060E948F01BC
:101A5000C0904206D0904306E0904406F0904506C0
:101A60006C197D098E099F096D3D754081059105B1
:101A7000A8F0609116016127609316018091120110
:101A8000909113010E944B070E948F0160934206C0
:101A900070934306809344069093450680914006D8
:101AA00090914106209116012223B9F181309105D0
:101AB000F9F08230910531F1892B09F045C08DE0B4
:101AC00090E00E948D0060E08EE090E00E94AB000C
:101AD00060E08FE090E00E94AB0036C010924106BB
:101AE00010924006AFCFF0924706E0924606AECF86
:101AF00060E08DE090E00E94AB008EE090E00E94FC
:101B00008D00E6CF60E08DE090E00E94AB0060E0E9
:101B10008EE090E00E94AB0013C08130910509F483
:101B200043C28230910509F444C2892B69F460E014
:101B30008DE090E00E94AB008EE090E00E948D006E
:101B40008FE090E00E948D008091480690913F06C2
:101B5000981779F0882309F431C20E948F016093AD
:101B60003B0670933C0680933D0690933E0610938F
:101B70003F068091370690913806A0913906B091C2
:101B80003A060197A109B1098C3D9540A105B1051F
:101B900008F04BC060915206709153068091540634
:101BA000909155060E9410182AE030E040E050E085
:101BB0000E94C916A0913506B09136067D01EE0C43
:101BC000FF1CF701ED51FA4F653071058105910554
:101BD0000CF011C231832083A7014D515A4FFA01F5
:101BE000608171816C567340CD010E944B076091FA
:101BF000350670913606683271050CF003C26F5FCE
:101C000084E690E00E944B0780913506909136065D
:101C100001969093360680933506109237061092FF
:101C200038061092390610923A0680913706909144
:101C30003806A0913906B0913A068D3D9540A10530
:101C4000B10538F1E3EEF5E01192119225E336E0AB
:101C50002E173F07C9F71092360610923506F12C61
:101C6000E12C60E0C7010E944B073FEFE31AF30A43
:101C700049E2E416F104A9F760E084E690E00E94EE
:101C80004B071092370610923806109239061092C0
:101C90003A0680914806882309F4B0C00E948F015B
:101CA000C0903B06D0903C06E0903D06F0903E068A
:101CB0006C197D098E099F096436710581059105AE
:101CC000B0F587E090E00E948D0086E090E00E94F1
:101CD0008D0085E090E00E948D0084E090E00E94FD
:101CE0008D0083E090E00E948D0082E090E00E94F1
:101CF0008D0081E090E00E948D0090E080E00E94E5
:101D00008D008CE090E00E948D008BE090E00E94BE
:101D10008D008AE090E00E948D0089E090E00E94B2
:101D20008D0088E090E00E948D000E94AD060E9428
:101D30008F016C197D098E099F0964367105810533
:101D4000910578F00E948F016C197D098E099F0919
:101D50006C3D75408105910520F40E94A0020E940F
:101D6000AD060E948F016C197D098E099F096C3D9B
:101D700075408105910508F441C00E948F016C19DE
:101D80007D098E099F096830774081059105B0F57E
:101D900087E090E00E948D0086E090E00E948D0038
:101DA00085E090E00E948D0084E090E00E948D002C
:101DB00083E090E00E948D0082E090E00E948D0020
:101DC00081E090E00E948D0090E080E00E948D0014
:101DD0008CE090E00E948D008BE090E00E948D00EE
:101DE0008AE090E00E948D0089E090E00E948D00E2
:101DF00088E090E00E948D000E94AD0680919B06D5
:101E00009091490691110CC1823008F0FDC0F89400
:101E100080E996E00E944F066091970670919806BF
:101E20008091990690919A067894A30192010E945C
:101E3000C91680911001909111012817390789F076
:101E4000821793070CF0E2C0809114019091150164
:101E50000297909315018093140130931101209300
:101E60001001E3EEF5E090E080E02191319112164F
:101E7000130624F4019689329105B9F79093DA0597
:101E80008093D90581E10E9458012FED30E0DC01FB
:101E90000E94841920E034E040E050E00E94C9161E
:101EA0002F5E3F4F4F4F5F4F220F331F220F331FC5
:101EB0002B5D3E4FF901E080F180F092E205E09267
:101EC000E105C0904A06D0904B06F1E0CF16D10450
:101ED00009F06EC10E948F018090DD059090DE05B3
:101EE000A090DF05B090E005AB01BC01481959098D
:101EF0006A097B09C701FF0CAA0BBB0B8417950766
:101F0000A607B70708F054C1809116018111E5C0FA
:101F100080914006909141068130910509F4A0C15D
:101F20008230910509F423C2892B09F0CCC0D092EC
:101F30000F01C0920E018091DB059091DC0589971D
:101F400024F01092DC051092DB05E090DB05F090A8
:101F5000DC05F701EE0FFF1FED51FA4F80819181F3
:101F6000181619060CF08FC02AE0289FB001299F8F
:101F7000700D11247093150160931401072E000C4D
:101F8000880B990B0E944818609352067093530671
:101F900080935406909355062FEFE21AF20AF092BE
:101FA000DC05E092DB058FC08DE090E00E948D00A3
:101FB000AECD8DE090E00E948D009FCD0E948F01FC
:101FC000C0903B06D0903C06E0903D06F0903E0667
:101FD0006C197D098E099F09609337067093380646
:101FE0008093390690933A060E94A0020E94AD06A3
:101FF00010923F06BECD69018FEFC81AD80AD18270
:10200000C082EACD60E0FCCDF89406CF28173907EE
:102010000CF023CF8091140190911501029619CFF5
:10202000823020F5F89480E996E00E944F06609196
:102030009706709198068091990690919A067894E7
:10204000A30192010E94C916809110019091110183
:102050002817390709F405CF821793074CF48091AC
:1020600014019091150184569109F3CEF894DFCFB5
:10207000281739070CF0F1CE8091140190911501C9
:102080008C599F4FE6CE8091E3059091E4052AE0BC
:10209000289FB001299F700D112470931501609342
:1020A0001401072E000C880B990B0E9448186093AE
:1020B0005206709353068093540690935506D0931E
:1020C000DC05C093DB050E948F016093DD057093F2
:1020D000DE058093DF059093E0058091160188234B
:1020E00009F466C0809140069091410681309105C7
:1020F00009F489C18230910509F4F2C1892B09F0F4
:102100004DC08AE090E090930D0180930C016091A6
:10211000140170911501665F7F4F709315016093F4
:10212000140180915C0690915D06680F791F072E5F
:10213000000C880B990B0E9448186B017C0120E071
:1021400038E049E056E40E94991787FD54C120E029
:1021500030E54AE256E4C701B6010E94F8181816A5
:102160003CF4C12C90E5D92E9AE2E92E96E4F92EA2
:10217000C0925206D0925306E0925406F092550651
:1021800020E030E54AE256E4C701B6010E94F818A3
:1021900087FD04C030921501209214010E948F0126
:1021A0006093DD057093DE058093DF059093E00575
:1021B0002091D7053091D8052130310509F02CC286
:1021C000809116018111C3C1809140069091410612
:1021D0008130910509F4FCC28230910509F47FC376
:1021E000892B09F0B4C130930F0120930E01809127
:1021F000DB059091DC05899724F01092DC051092A4
:10220000DB05E090DB05F090DC05F701EE0FFF1F2A
:10221000ED51FA4F80819181181619060CF077C1A3
:102220002AE0289FB001299F700D11247093150199
:1022300060931401072E000C880B990B0E9448181C
:1022400060935206709353068093540690935506FC
:10225000FFEFEF1AFF0AF092DC05E092DB0577C191
:102260008091DB059091DC0589978CF080910E01BF
:1022700090910F0191958195910990930F01809311
:102280000E0148E250E05093DC054093DB0580915D
:10229000DB059091DC0597FF0FC080910E019091B6
:1022A0000F0191958195910990930F0180930E01F3
:1022B000D093DC05C093DB05E090DB05F090DC05F6
:1022C000F701EE0FFF1FED51FA4F80819181C09011
:1022D0000E01D0900F0118161906DCF42AE0289F91
:1022E000B001299F700D11247093150160931401A2
:1022F000072E000C880B990B0E9448186093520619
:10230000709353068093540690935506EC0CFD1C75
:1023100046CE882799278C199D0990930F018093A9
:102320000E01EC18FD08EC18FD08F701EE0FFF1F79
:10233000ED51FA4F808191812AE0289FB001299FB9
:10234000700D11247093150160931401072E000C79
:10235000880B990B0E94481860935206709353069D
:102360008093540690935506EC18FD0818CE2091E2
:10237000D9053091DA05032E000C440B550B60E0B3
:1023800070E0CB010E94E9067093DC056093DB05E9
:10239000660F771F6D517A4FFB018081918118166E
:1023A0001906DCF42AE0289FB001299F700D112442
:1023B0007093150160931401072E000C880B990B84
:1023C0000E944818609352067093530680935406F7
:1023D000909355060E94A00276CE28E230E040E0BD
:1023E00050E060E070E0CB010E94E9067093DC05EC
:1023F0006093DB05EFCFC12C88E0D82E89E0E82E72
:1024000086E4F82EB5CEE0900C01F0900D016091BD
:102410001401709115016E0D7F1D7093150160936D
:10242000140180915C0690915D06680F791F072E5C
:10243000000C880B990B0E9448184B015C0120E0AE
:1024400038E049E056E40E94991787FD41C020E03A
:1024500030E54AE256E4C501B4010E94F8181816A6
:102460003CF4812C00E5902E0AE2A02E06E4B02E6A
:102470008092520690925306A0925406B09255064E
:1024800020E030E54AE256E4C501B4010E94F818A4
:1024900087FD07C0F194E194F108F0920D01E092FC
:1024A0000C0120E038E049E056E4C501B4010E9487
:1024B000991718160CF472CE80910C0190910D01B1
:1024C00091958195910990930D0180930C0166CEB1
:1024D000812CB8E09B2EB9E0AB2EB6E4BB2EC8CF62
:1024E00022E434E040E050E06DE673E080E090E00C
:1024F0000E94E9062AE0269FA001279F500D112483
:1025000050931501409314010E94A00247CE809180
:10251000E3059091E4052AE0289FB001299F700D02
:1025200011247093150160931401072E000C880B81
:10253000990B0E944818609352067093530680933B
:10254000540690935506D093DC05C093DB0580912B
:102550001601882309F45CC08091400690914106E1
:102560008130910509F407C28230910509F470C2E7
:10257000892B09F04DC08AE090E090930D01809383
:102580000C016091140170911501665F7F4F70938B
:1025900015016093140180915C0690915D06680FAF
:1025A000791F072E000C880B990B0E9448186B01AD
:1025B0007C0120E038E049E056E40E94991787FD4D
:1025C000D2C120E030E54AE256E4C701B6010E94DC
:1025D000F81818163CF4C12C40E5D42E4AE2E42E3B
:1025E00046E4F42EC0925206D0925306E09254066E
:1025F000F092550620E030E54AE256E4C701B60104
:102600000E94F81887FD04C0309215012092140131
:102610001092D8051092D70520915206309153069A
:1026200040915406509155066091D3057091D405A0
:102630008091D5059091D6050E949917882309F4B9
:1026400087C20E94A0020E94AD06E0917C06F09134
:102650007D06808190917906892B808320E034E289
:1026600044E759E460914E0670914F068091500600
:10267000909151060E94FD1820E03AEB4BE558E49A
:102680000E942D1720E030E040E850E40E94FD1841
:1026900020E030E040E058E30E94FD180E94171847
:1026A000062F672FB090A6061093D005B092CF05E5
:1026B0001092CE051092CD0582E696E00E94590256
:1026C000602F82E696E00E94590260EB82E696E077
:1026D0000E94590260E182E696E00E94590260E0A1
:1026E00082E696E00E9459020091CD05013208F081
:1026F000EBC10E946A016B017C018091A7058111E9
:10270000BEC182E08093A7051093A6058FEF80934A
:10271000A5051092A4050093A305ADEAB5E0E3E892
:10272000F5E080E0081339C210928205809182059D
:10273000BB0CB82AB092820580918105813009F0E6
:1027400030C2109281050E946A016B017C01809168
:1027500082058093BB008091A9059091AA05A09164
:10276000AB05B091AC05892B8A2B8B2BA1F00E9475
:102770006A018090A9059090AA05A090AB05B09041
:10278000AC056C197D098E099F0986169706A80667
:10279000B90608F495C18091BC0083FDD8CF85ECC3
:1027A0008093BC000E946A016B017C018091A705A7
:1027B000823009F4F8C18091A5058F3F09F484C1E6
:1027C0008091A505803209F47FC18091A5057CC167
:1027D0008091DB059091DC0589978CF080910E014A
:1027E00090910F0191958195910990930F0180939C
:1027F0000E0128E230E03093DC052093DB05809168
:10280000DB059091DC0597FF0FC080910E01909140
:102810000F0191958195910990930F0180930E017D
:10282000D093DC05C093DB05E090DB05F090DC0580
:10283000F701EE0FFF1FED51FA4F80819181C0909B
:102840000E01D0900F0118161906DCF42AE0289F1B
:10285000B001299F700D112470931501609314012C
:10286000072E000C880B990B0E94481860935206A3
:10287000709353068093540690935506EC0CFD1C00
:10288000EACC882799278C199D0990930F01809392
:102890000E01EC18FD08EC18FD08F701EE0FFF1F04
:1028A000ED51FA4F808191812AE0289FB001299F44
:1028B000700D11247093150160931401072E000C04
:1028C000880B990B0E944818609352067093530628
:1028D0008093540690935506EC18FD08BCCC2091CB
:1028E000D9053091DA05032E000C440B550B60E03E
:1028F00070E0CB010E94E9067093DC056093DB0574
:10290000660F771F6D517A4FFB01808191811816F8
:102910001906DCF42AE0289FB001299F700D1124CC
:102920007093150160931401072E000C880B990B0E
:102930000E94481860935206709353068093540681
:10294000909355060E94A00202CE28E230E040E0BB
:1029500050E060E070E0CB010E94E9067093DC0576
:102960006093DB05EFCFC12C38E0D32E39E0E32EA6
:1029700036E4F32E37CEE0900C01F0900D0160911B
:102980001401709115016E0D7F1D709315016093F8
:10299000140180915C0690915D06680F791F072EE7
:1029A000000C880B990B0E9448184B015C0120E039
:1029B00038E049E056E40E94991787FD41C020E0C5
:1029C00030E54AE256E4C501B4010E94F818181631
:1029D0003CF4812C20E5922E2AE2A22E26E4B22E8F
:1029E0008092520690925306A0925406B0925506D9
:1029F00020E030E54AE256E4C501B4010E94F8182F
:102A000087FD07C0F194E194F108F0920D01E09286
:102A10000C0120E038E049E056E4C501B4010E9411
:102A2000991718160CF4F4CD80910C0190910D01BA
:102A300091958195910990930D0180930C01E8CDBA
:102A4000812C98E0992E99E0A92E96E4B92EC8CF52
:102A500022E434E040E050E06DE673E080E090E096
:102A60000E94E9062AE0269FA001279F500D11240D
:102A700050931501409314010E94A002C9CD80918A
:102A8000A9059091AA05A091AB05B091AC05892B41
:102A90008A2B8B2B09F431CE0E946A012091A90563
:102AA0003091AA054091AB055091AC056C197D0998
:102AB0008E099F09261737074807590708F01DCECA
:102AC0008091A8050E94E1011092CE051092CD05DB
:102AD0001092D0050E946A014B015C0184E6C82E69
:102AE000D12CE12CF12C0E946A01681979098A091C
:102AF0009B09683E734081059105A8F3F1E0CF1A68
:102B0000D108E108F10828EE820E23E0921EA11CF4
:102B1000B11CC114D104E104F10429F7E0917C0651
:102B2000F0917D069081809179068095892380833C
:102B30008091520690915306A0915406B09155068B
:102B40008093D3059093D405A093D505B093D60573
:102B50008091350690913606899724F010923606BA
:102B600010923506E0904006F09041068091D10524
:102B70009091D2058E159F0531F00E94AD06F0921E
:102B8000D205E092D10540E050E0452B11F40C94C1
:102B90009E0B0E9400000C94990B9D9191938F5F66
:102BA000C1CD85EEFDCD8091A9059091AA05A0919A
:102BB000AB05B091AC05892B8A2B8B2B09F4F6CD94
:102BC0000E946A018090A9059090AA05A090AB058B
:102BD000B090AC056C197D098E099F098616970681
:102BE000A806B90608F0E2CD6BCF82E796E00E9416
:102BF0009D0688E796E00E949D068EE796E00E947B
:102C00009D0684E896E00E949D068AE896E00E9470
:102C10009D068091A4069091A5060C943B1A8F9274
:102C20009F92AF92BF92CF92DF92EF92FF92CF939B
:102C3000DF93EC01688179818A819B81611571053F
:102C40008105910521F464E279ED8BE597E02DE1B2
:102C500033EF41E050E00E94C91649015A019B013F
:102C6000AC01A7EAB1E40E94E8166B017C01ACEE6E
:102C7000B4EFA50194010E94F616C60ED71EE81EF9
:102C8000F91EF7FE06C081E0C81AD108E10880E805
:102C9000F80AC882D982EA82FB82C701B6019F770F
:102CA000DF91CF91FF90EF90DF90CF90BF90AF90EA
:102CB0009F908F9008958F929F92AF92BF92CF92E4
:102CC000DF92EF92FF9260911B0170911C01809145
:102CD0001D0190911E01611571058105910521F479
:102CE00064E279ED8BE597E02DE133EF41E050E0D0
:102CF0000E94C91649015A019B01AC01A7EAB1E43F
:102D00000E94E8166B017C01ACEEB4EFA5019401C2
:102D10000E94F616C60ED71EE81EF91EF7FE06C064
:102D200081E0C81AD108E10880E8F80AC0921B01C6
:102D3000D0921C01E0921D01F0921E01C701B60164
:102D40009F77FF90EF90DF90CF90BF90AF909F90D4
:102D50008F90089560931B0170931C0180931D0157
:102D600090931E010895F999FECF92BD81BDF89A06
:102D7000992780B50895262FF999FECF1FBA92BDE5
:102D800081BD20BD0FB6F894FA9AF99A0FBE01964C
:102D90000895052E97FB1EF400940E94E01657FD3F
:102DA00007D00E94FB1607FC03D04EF40C94E016EB
:102DB00050954095309521953F4F4F4F5F4F089567
:102DC00090958095709561957F4F8F4F9F4F089597
:102DD0000E941D17A59F900DB49F900DA49F800D7C
:102DE000911D11240895B7FF0C94E8160E94E8166F
:102DF000821B930B0895A1E21A2EAA1BBB1BFD0197
:102E00000DC0AA1FBB1FEE1FFF1FA217B307E407C9
:102E1000F50720F0A21BB30BE40BF50B661F771F21
:102E2000881F991F1A9469F7609570958095909501
:102E30009B01AC01BD01CF010895A29FB001B39FDA
:102E4000C001A39F700D811D1124911DB29F700DB3
:102E5000811D1124911D08955058BB27AA270E9457
:102E600044170C94BE180E94B01838F00E94B7188E
:102E700020F039F49F3F19F426F40C94AD180EF4A9
:102E8000E095E7FB0C94A718E92F0E94CF1858F3A0
:102E9000BA17620773078407950720F079F4A6F53F
:102EA0000C94F1180EF4E0950B2EBA2FA02D0B0107
:102EB000B90190010C01CA01A0011124FF27591B7F
:102EC00099F0593F50F4503E68F11A16F040A22F85
:102ED000232F342F4427585FF3CF469537952795F6
:102EE000A795F0405395C9F77EF41F16BA0B620BF5
:102EF000730B840BBAF09150A1F0FF0FBB1F661F3C
:102F0000771F881FC2F70EC0BA0F621F731F841F7E
:102F100048F4879577956795B795F7959E3F08F0A4
:102F2000B0CF9395880F08F09927EE0F9795879566
:102F300008950E94831808F481E008950E94B21752
:102F40000C94BE180E94B71858F00E94B01840F0B8
:102F500029F45F3F29F00C94A71851110C94F21832
:102F60000C94AD180E94CF1868F39923B1F3552340
:102F700091F3951B550BBB27AA276217730784078C
:102F800038F09F5F5F4F220F331F441FAA1FA9F322
:102F900035D00E2E3AF0E0E832D091505040E69510
:102FA000001CCAF72BD0FE2F29D0660F771F881F71
:102FB000BB1F261737074807AB07B0E809F0BB0B64
:102FC000802DBF01FF2793585F4F3AF09E3F510578
:102FD00078F00C94A7180C94F2185F3FE4F3983E35
:102FE000D4F3869577956795B795F7959F5FC9F761
:102FF000880F911D9695879597F90895E1E0660FE2
:10300000771F881FBB1F621773078407BA0720F05A
:10301000621B730B840BBA0BEE1F88F7E0950895C3
:103020000E9417186894B1110C94F21808950E9428
:10303000D71888F09F5798F0B92F9927B751B0F05B
:10304000E1F0660F771F881F991F1AF0BA95C9F72C
:1030500014C0B13091F00E94F118B1E008950C94C1
:10306000F118672F782F8827B85F39F0B93FCCF374
:10307000869577956795B395D9F73EF490958095A9
:10308000709561957F4F8F4F9F4F0895E89409C0C9
:1030900097FB3EF490958095709561957F4F8F4F8B
:1030A0009F4F9923A9F0F92F96E9BB279395F695A1
:1030B000879577956795B795F111F8CFFAF4BB0F1F
:1030C00011F460FF1BC06F5F7F4F8F4F9F4F16C083
:1030D000882311F096E911C0772321F09EE8872F0D
:1030E000762F05C0662371F096E8862F70E060E0C9
:1030F0002AF09A95660F771F881FDAF7880F969542
:10310000879597F90895990F0008550FAA0BE0E8E5
:10311000FEEF16161706E807F907C0F01216130699
:10312000E407F50798F0621B730B840B950B39F4D9
:103130000A2661F0232B242B252B21F408950A263F
:1031400009F4A140A6958FEF811D811D089597F97F
:103150009F6780E870E060E008959FEF80EC08953D
:1031600000240A9416161706180609060895002466
:103170000A9412161306140605060895092E0394E0
:10318000000C11F4882352F0BB0F40F4BF2B11F454
:1031900060FF04C06F5F7F4F8F4F9F4F089557FDB3
:1031A0009058440F551F59F05F3F71F04795880FB5
:1031B00097FB991F61F09F3F79F08795089512164C
:1031C00013061406551FF2CF4695F1DF08C01616F8
:1031D00017061806991FF1CF8695710561050894A9
:1031E0000895E894BB2766277727CB0197F90895C0
:1031F0000E94831808F48FEF08950E9410190C9410
:10320000BE180E94B01838F00E94B71820F095231D
:1032100011F00C94A7180C94AD1811240C94F2180A
:103220000E94CF1870F3959FC1F3950F50E0551F82
:10323000629FF001729FBB27F00DB11D639FAA270B
:10324000F00DB11DAA1F649F6627B00DA11D661F5A
:10325000829F2227B00DA11D621F739FB00DA11D7B
:10326000621F839FA00D611D221F749F3327A00D35
:10327000611D231F849F600D211D822F762F6A2FD1
:1032800011249F5750409AF0F1F088234AF0EE0F36
:10329000FF1FBB1F661F771F881F91505040A9F763
:1032A0009E3F510580F00C94A7180C94F2185F3FD4
:1032B000E4F3983ED4F3869577956795B795F7959F
:1032C000E7959F5FC1F7FE2B880F911D9695879517
:1032D00097F9089597FB072E16F4009407D077FD11
:1032E00009D00E948B1907FC05D03EF4909581957A
:1032F0009F4F0895709561957F4F0895EE0FFF1FC2
:103300000590F491E02D09940E941D17B7FF0895D0
:10331000821B930B0895AA1BBB1B51E107C0AA1F78
:10332000BB1FA617B70710F0A61BB70B881F991F66
:103330005A95A9F780959095BC01CD0108950F93FA
:103340001F93CF93DF938230910510F482E090E0D9
:10335000E091AA06F091AB0630E020E0B0E0A0E0FA
:10336000309799F42115310509F44AC0281B390B0F
:1033700024303105D8F58A819B816115710589F169
:10338000FB0193838283FE0111C040815181028140
:10339000138148175907E0F04817590799F4109717
:1033A00061F012960C93129713961C933296CF01EC
:1033B000DF91CF911F910F9108950093AA0610936A
:1033C000AB06F4CF2115310551F04217530738F001
:1033D000A901DB019A01BD01DF01F801C1CFEF01B5
:1033E000F9CF9093AB068093AA06CDCFFE01E20FF2
:1033F000F31F819391932250310939832883D7CFCA
:103400002091A8063091A906232B41F42091210197
:10341000309122013093A9062093A80620911F0124
:10342000309120012115310541F42DB73EB740916F
:10343000230150912401241B350BE091A806F09143
:10344000A906E217F307A0F42E1B3F0B2817390734
:1034500078F0AC014E5F5F4F2417350748F04E0FF0
:103460005F1F5093A9064093A806819391939FCF25
:10347000F0E0E0E09CCFCF93DF930097E9F0FC0110
:10348000329713821282A091AA06B091AB06ED0189
:1034900030E020E01097A1F420813181820F931F4A
:1034A0002091A8063091A9062817390709F061C0B4
:1034B000F093A906E093A806DF91CF910895EA0161
:1034C000CE17DF07E8F54A815B819E014115510562
:1034D000B1F7E901FB83EA8349915991C40FD51FE4
:1034E000EC17FD0761F4808191810296840F951F8E
:1034F000E90199838883828193819B838A83F0E0A9
:10350000E0E012968D919C9113970097B9F52D915B
:103510003C911197CD010296820F931F2091A8062E
:103520003091A9062817390739F6309751F51092CE
:10353000AB061092AA06B093A906A093A806BCCF2A
:10354000D383C28340815181840F951FC817D90747
:1035500061F44E5F5F4F88819981480F591F5183F5
:1035600040838A819B81938382832115310509F0F1
:10357000B0CFF093AB06E093AA069ECFFD01DC012D
:10358000C0CF13821282D7CF10E0C2E6D0E004C0D1
:10359000FE010E947E192196C336D107C9F7F8941F
:1035A000FFCFDA00DA00DA00DA00DA00DA000A0027
:1035B0000100422290014222019B019B0101000077
:1035C000000000AC068000460000004700000049F3
:1035D0000000004B0000004D0000004F00000051B3
:1035E0000000005300000055000000580000005A81
:1035F0000000005C0000005F00000061000000644B
:1036000000000066000000690000006C0000006F10
:103610000000007100000074000000780000007BD2
:103620000000007E0000008100000084000000888F
:103630000000008B0000008F000000930000009746
:103640000000009B0000009F000000A3000000A7F6
:10365000000000AB000000B0000000B4000000B9A2
:10366000000000BE000000C3000000C8000000CD44
:10367000000000D3000000D8000000DE000000E3DE
:10368000000000E9000000EF000000F6000000FC70
:1036900000000003010000090100001001000017F4
:1036A0000100001F010000260100002E010000366D
:1036B0000100003E010000460100004F01000057DC
:1036C0000100006001000069010000730100007C3E
:1036D00001000086010000900100009B010000A68F
:1036E000010000B1010000BC010000C7010000D3CF
:1036F000010000DF010000EC010000F901000006FC
:1037000002000013020000210200002F0200003E10
:103710000200004D0200005C0200006C0200007C10
:103720000200008D0200009D020000AF020000C1F7
:10373000020000D3020000E6020000F90200000DC2
:1037400003000021030000360300004C0300006268
:10375000030000780300008F030000A7030000BFF0
:10376000030000D8030000F20300000C040000274F
:10377000040000430400005F0400007C0400009A81
:10378000040000B9040000D8040000F80400001987
:103790000500003B0500005E05000082050000A753
:1037A000050000CC050000F30500001A06000043E8
:1037B0000600006D06000097060000C3060000F03A
:1037C0000600001F0700004E0700007F070000B141
:1037D000070000E4070000180800004E08000085FC
:1037E000080000BE080000F808000034090000715D
:1037F000090000B0090000F1090000330A00007759
:103800000A0000BC0A0000040B00004D0B000099E8
:103810000B0000E60B0000350C0000860C0000DAFF
:103820000C00002F0D0000870D0000E10D00003D91
:103830000E00009C0E0000FD0E0000610F0000C78E
:103840000F0000311000009C1000000B1100007CE4
:10385000110000F111000068120000E31200006086
:10386000130000E113000066140000ED140000795D
:10387000150000081600009A16000031170000CB52
:103880001700006A1800000C190000B31900005E50
:103890001A00000D1B0000C11B00007A1C0000383C
:1038A0001D0000FA1D0000C21E00008F1F000061F5
:1038B0002000003821000015220000F8220000E15D
:1038C000230000D0240000C5250000C0260000C24F
:1038D000270000CB280000DA290000F12A00000FA1
:1038E0002C0000342D0000612E0000952F0000D226
:1038F0003000001732000065330000BB3400001AAE
:1039000036000082370000F33800006E3A0000F302
:103910003B0000823D00001C3F0000C04000006FE3
:1039200042000029440000EF450000C04700009E0F
:10393000490000884B00007E4D0000824F0000933C
:10394000510000B2530000E05500001B5800006613
:103950005A0000BF5C0000295F0000A26100002C3B
:10396000640000C766000073690000316C0000014C
:103970006F0000E3710000DA740000E377000001DB
:103980007B0000347E00007C8100000D000E000FE3
:10399000000000000059022C0288020202250212D7
:0439A000020302001C
:107E0000112484B714BE81FFF0D085E080938100F7
:107E100082E08093C00088E18093C10086E0809377
:107E2000C20080E18093C4008EE0C9D0259A86E02C
:107E300020E33CEF91E0309385002093840096BBD3
:107E4000B09BFECF1D9AA8958150A9F7CC24DD24C4
:107E500088248394B5E0AB2EA1E19A2EF3E0BF2EE7
:107E6000A2D0813461F49FD0082FAFD0023811F036
:107E7000013811F484E001C083E08DD089C08234E0
:107E800011F484E103C0853419F485E0A6D080C0E4
:107E9000853579F488D0E82EFF2485D0082F10E0AE
:107EA000102F00270E291F29000F111F8ED06801E7
:107EB0006FC0863521F484E090D080E0DECF843638
:107EC00009F040C070D06FD0082F6DD080E0C81688
:107ED00080E7D80618F4F601B7BEE895C0E0D1E017
:107EE00062D089930C17E1F7F0E0CF16F0E7DF06D8
:107EF00018F0F601B7BEE89568D007B600FCFDCFD4
:107F0000A601A0E0B1E02C9130E011968C91119780
:107F100090E0982F8827822B932B1296FA010C0160
:107F200087BEE89511244E5F5F4FF1E0A038BF0790
:107F300051F7F601A7BEE89507B600FCFDCF97BE46
:107F4000E89526C08437B1F42ED02DD0F82E2BD052
:107F50003CD0F601EF2C8F010F5F1F4F84911BD097
:107F6000EA94F801C1F70894C11CD11CFA94CF0C13
:107F7000D11C0EC0853739F428D08EE10CD085E9AC
:107F80000AD08FE07ACF813511F488E018D01DD067
:107F900080E101D065CF982F8091C00085FFFCCF94
:107FA0009093C60008958091C00087FFFCCF809118
:107FB000C00084FD01C0A8958091C6000895E0E648
:107FC000F0E098E1908380830895EDDF803219F02E
:107FD00088E0F5DFFFCF84E1DECF1F93182FE3DFCA
:107FE0001150E9F7F2DF1F91089580E0E8DFEE27F6
:047FF000FF270994CA
:027FFE00040479
:00000001FF
